:400000000080002011000000410400004104000080B500AF47F2BC63C4F2000344F2FA62C4F2000212681A6000F00EFA10B5054C237833B9044810B10448AFF30080012120
:40004000217010BDE881FF1F000000001C75000008B5064B1BB106480649AFF300800648016811B1054A02B1904708BD000000001C750000EC81FF1F0881FF1F0000000097
:4000800090B5ADF5137D00AF07F128031A464FF4007310464FF000011A4604F0A8FF4FF00003C7F834324FF00003C7F840324FF00003A7F832324FF00003C7F82C324FF093
:4000C0000003C7F83C324FF0000387F83B3207F118034FF000021A6003F104034FF000021A6003F104034FF000021A6003F104034FF000021A8003F102034FF000021A70CE
:4001000003F1010362B64FF000004FF0000101F0F1FF00F0B7FE00F0D3FE01F05BFA00BF02F006FA0346002BFAD002F07FFB4FF0000000F0D9FE00F001FFC7F834024FF01E
:40014000000387F847320DE097F8472207F12803D7F8341243F8221097F8473203F1010387F8473297F847325BB2002BECDAD7F834324FEAC313C7F84032D7F83432C7F893
:400180003C3200E000BF02F03DFC034687F82B3297F82B32002B00F0AB8097F82B3203F00103002B5BD002F057FC044602F09EFC034607F10402104647F25051C0F2000132
:4001C000224604F01DFF4FF000004FF0000101F017FA47F26050C0F2000001F04DFA4FF000004FF0000101F00BFA07F10403184601F042FA02F062FC03461A4648F22013CE
:40020000C1F6FF7353F8224002F064FC03461A4648F20C13C1F6FF7353F8223007F10402104647F27851C0F20001224604F0E8FE4FF001004FF0000101F0E2F947F260504E
:40024000C0F2000001F018FA4FF001004FF0000101F0D6F907F10403184601F00DFA97F82B3203F00203002B42D002F04BFC034687F82B3297F82B3203F00103002B04D0D3
:4002800047F28852C0F2000203E047F28C52C0F2000297F82B3203F00203002B04D047F28853C0F2000303E047F28C53C0F2000307F10401084647F29051C0F2000104F061
:4002C0009FFE4FF001004FF0000101F099F947F26050C0F2000001F0CFF94FF001004FF0000101F08DF907F10403184601F0C4F94FF0000000F0F8FD00F020FEC7F83402E1
:40030000D7F83C22D7F83432D31A002BB8BF5B42A7F83232B7F93232B3F57A7F26DD4FF0000387F847320DE097F8472207F12803D7F8341243F8221097F8473203F10103B0
:4003400087F8473297F847325BB2002BECDAD7F834324FEAC313C7F84032D7F83432C7F83C324FF0000387F83B322DE097F83B2207F1280353F82230D7F84022D31AC7F8E4
:400380004032D7F84022D7F83432D318C7F84032D7F840324FEAE313C7F83C3297F83B2207F12803D7F8341243F8221097F83B3203F1010387F83B3297F83B32802B03D1C0
:4003C0004FF0000387F83B32D7F83C0200F022FEC7F82C0204F036FB0346002B7FF4D2AE47F2A050C0F2000002F04EFA4FF00A0001F0F2FD07F11803184647F2B451C0F29A
:400400000001D7F82C2204F0FBFD07F11803184602F03AFA4FF00A0001F0DEFD47F2BC50C0F2000002F030FA4FF00A0001F0D4FD02F0CAFA4FF47A7001F0CEFDA2E600BF02
:4004400080B400AFFEE700BF80B586B000AF40F20103C0F200037B6147F62413C0F200033B6140F20103C0F200037B6147F62413C0F200033B613BE03B691B68FB603B6982
:400480005B68BB603B699B683B604FF000037B600FE0FB681A68BB681A60BB6803F10403BB60FB6803F10403FB607B6803F104037B607A683B689A42EBD13B69DB683B6044
:4004C0004FF000037B600BE0BB684FF000021A60BB6803F10403BB607B6803F104037B607A683B689A42EFD13B6903F110033B617B69002B0CBF00230123DBB27A6902F138
:40050000FF327A61002BB7D104F042FDFFF7B8FDFEE700BF80B582B000AF4EF60C53CEF200034FF48062C0F2FA521A604EF61453CEF200034EF61452CEF20002126842F4D7
:4005400000721A604FF000037B6019E07B68032B07D840F20003C0F200037A6853F8223003E040F24143C0F2000348F20002C1F6FF72796842F821307B6803F101037B604C
:400580007B682F2BE2D947F2BC63C4F200031B78DAB248F20413C1F6FF731A704EF60853CEF2000348F20002C1F6FF721A6000F0CFF948F20013C1F6FF734FF000021A60E6
:4005C00007F10807BD4680BD80B582B000AF7860396078684FF000013A6804F008FD07F10807BD4680BD00BF80B584B000AFF860B9607A60F868B9687A6804F0EFFC07F1CF
:400600001007BD4680BD00BF80B483B000AF0346FB71FEE780B487B000AF786039604FF000033B614FF000037B612CE07B694FEA83037A68D3181B68BB60BB68FB73BB689F
:4006400023F0FF03BB6017E03B694FEA43033A68D3181B781A46BB68D3183A694FEA420239688A1852781A703B6903F101033B61FB7B03F1FF33FB73FB7B002BE4D17B696F
:4006800003F101037B617B69182BCFD907F11C07BD4680BC704700BF80B582B000AF4FF48143C4F200034FF000021A8044F28203C4F200034FF050021A704FF48240C4F2CC
:4006C00000004FF49671C4F600014FF00402FFF78BFF4FF48643C4F200034FF006021A704FF48443C4F200034FF052021A7044F2A163C4F2000340F20F12C4F6001212781E
:40070000D2B21A7044F22223C4F2000340F618021A8044F22023C4F2000341F251221A804FF00003FB704FF019037B6019E0FB784FEA4303DAB244F22523C4F200031B78F7
:40074000DBB203F00103DBB21343DBB203F00303FB704FF4F07001F01FFC7B6803F1FF337B607B68002B02D0FB78032BDFD17B68002B03D14FF00300FFF746FF44F20403C1
:40078000C4F200034FF480721A8044F20403C4F200034FF007021A7044F20603C4F200034FF000021A7044F20803C4F200034FF048021A7044F20403C4F200034FF00002E2
:4007C0001A7044F20903C4F200034FF000021A7044F20103C4F200034FF002021A7044F20B03C4F200034FF004021A7044F2A233C4F2000344F2A232C4F200021278D2B289
:4008000042F00102D2B21A7044F2A133C4F2000344F2A132C4F200021278D2B242F00102D2B21A7044F2A033C4F2000344F2A032C4F200021278D2B262F07F02D2B21A702F
:4008400007F10807BD4680BD80B483B000AF40F2CF13C4F600131B78FB7145F66E03C4F20003FA7902F00702D2B21A7045F66F03C4F20003FA794FEA1212D2B21A7045F2DF
:400880006D13C4F200034FF020021A704FF4B643C4F200034FF002021A7045F67603C4F200034FF044021A7007F10C07BD4680BC704700BF80B483B000AF0346FB71FB79D7
:4008C000012B17D8FA7947F2C053C0F2000353F82220F97947F2C053C0F2000353F821301978F87947F2C853C0F200031B5C0B43DBB2137007F10C07BD4680BC704700BF2D
:4009000080B483B000AF0346FB71FB79012B1AD8FA7947F2C053C0F2000353F82220F97947F2C053C0F2000353F821301978F87947F2C853C0F200031B5C6FEA0303DBB2DC
:400940000B40DBB2137007F10C07BD4680BC704780B582B000AF72B64FF49043C4F200034FF001021A70FFF797FE44F2E863C4F2000344F2E862C4F200021278D2B242F005
:400980000402D2B21A704FF00003FB7119E0FA7913464FEA43039B184FEA430347F2CC52C0F200029B183B603B681A683B689B889BB210461946FFF707FEFB7903F1010352
:4009C000FB71FB79062BE2D94FF090404FF06401C4F60001FFF71EFE45F68303C4F200034FF00A021A7045F20303C4F2010345F20302C4F201021278D2B242F00202D2B2A8
:400A00001A7045F21303C4F2010345F21302C4F201021278D2B242F00202D2B21A7044F2A033C4F2000344F2A032C4F200021278D2B242F04002D2B21A7044F2C233C4F2DB
:400A4000000344F2C232C4F200021278D2B242F01002D2B21A7045F20210C4F200004FF0FC01C4F600014FF00802FFF7BDFD45F2F010C4F200004FF48271C4F600014FF025
:400A80000A02FFF7B1FD45F21210C4F200004FF48871C4F600014FF00802FFF7A5FD45F22210C4F200004FF48C71C4F600014FF00802FFF799FD45F26010C4F200004FF410
:400AC0009071C4F600014FF00A02FFF78DFD44F22233C4F2000344F22232C4F200021278D2B242F00802D2B21A70FFF7ADFE44F2B030C4F2000044F2A031C4F200014FF027
:400B00000E02FFF771FD07F10807BD4680BD00BF80B582B002AF48F22C13C1F6FF734FF001021A7048F20423C1F6FF734FF000021A704FF0100001F0D1F84FF0100001F017
:400B4000FBF94FF01D004FF0070101F0ADFA45F69603C4F200034FF007021A7045F69703C4F200034FF000021A7045F69E03C4F200034FF000021A7045F60733C4F2000300
:400B800045F60732C4F200021278D2B242F01802D2B21A7045F69303C4F200034FF000021A7045F68833C4F200034FF000021A7045F68933C4F200034FF000021A704FF414
:400BC000B143C4F200034FF00A021A7045F68103C4F200034FF000021A7045F68303C4F200034FF000021A7045F68803C4F200034FF05B021A7045F68903C4F200034FF087
:400C00005E021A7045F68D03C4F200034FF000021A7044F60163C4F200034FF014021A704FF0010300934FF0020048F6F0514FF400424FF0140300F04FFB44F60E63C4F239
:400C4000000348F22C12C1F6FF721278D2B202F1FF3248F20821C1F6FF714FEA82028A1892781A7044F60C63C4F2000348F22C12C1F6FF721278D2B202F1FF3148F208228B
:400C8000C1F6FF7232F821201A8048F22C13C1F6FF731B78DBB2184600F028FABD4680BD80B582B000AF01F081F90346FB7148F22C13C1F6FF731B78BB7144F2AA33C4F235
:400CC000000344F2AA32C4F200021278D2B242F00102D2B21A7044F2AA33C4F2000344F2AA32C4F200021278D2B242F01002D2B21A7044F2BA33C4F2000344F2BA32C4F22C
:400D000000021278D2B242F00102D2B21A7044F2BA33C4F2000344F2BA32C4F200021278D2B242F01002D2B21A7044F2F863C4F2000344F2F862C4F200021278D2B242F078
:400D40000202D2B21A7044F2F963C4F2000344F2F962C4F200021278D2B242F00202D2B21A7045F69103C4F2000345F69102C4F200021278D2B242F00302D2B21A704FF0DB
:400D8000030001F04DF944F2F863C4F2000344F2F862C4F200021278D2B222F00202D2B21A7044F2F963C4F2000344F2F962C4F200021278D2B222F00202D2B21A7045F634
:400DC0007703C4F2000345F67702C4F200021278D2B242F00602D2B21A7045F68203C4F200034FF07A021A7044F2A133C4F2000344F2A132C4F200021278D2B242F0010279
:400E0000D2B21A7044F2B133C4F2000344F2B132C4F200021278D2B242F00102D2B21A7044F2A233C4F2000344F2A232C4F200021278D2B242F00102D2B21A7044F2B233BD
:400E4000C4F2000344F2B232C4F200021278D2B242F00102D2B21A704EF28023CEF200034FF000521A604FF46143CEF200034FF000521A60FB79184601F09CF807F10807D2
:400E8000BD4680BD80B500AF48F20623C1F6FF731B78002B10D148F20723C1F6FF731B78DBB2002B01D1FFF733FE48F20623C1F6FF734FF001021A70FFF7F2FE80BD00BFD8
:400EC00080B400AF4FF49C43C4F200034FF49C42C4F200021278D2B242F00102D2B21A70BD4680BC704700BF80B485B000AF0346FB7148F20523C1F6FF731B78DBB2002BB2
:400F000006D048F20423C1F6FF731B78FB7308E044F60163C4F200031B78DBB203F00103FB73FB7B012B02D0FB79002BE1D0FB7B184607F11407BD4680BC704780B483B084
:400F400000AF44F61463C4F200031B78DBB203F00303FB70FB78012B12D844F61263C4F200031B889BB27B607B684FEA034244F61063C4F200031B889BB213437B6032E01E
:400F8000FB78022B1DD144F61263C4F200031B889BB27B607B684FEA034244F61063C4F200031B78DBB213437B6044F61163C4F200031B78DBB24FEA03237A6813437B605F
:400FC00011E044F61063C4F200031B889BB27B6044F61263C4F200031B889BB24FEA03437A6813437B6048F20523C1F6FF731B78DBB2002B06D048F20423C1F6FF734FF070
:4010000000021A707B68184607F10C07BD4680BC704700BF80B487B000AF786048F22C13C1F6FF731B78DBB2012B03D14FF01403FB731AE048F22C13C1F6FF731B78DBB2EF
:40104000022B03D14FF01003FB730EE048F22C13C1F6FF731B78DBB2032B03D14FF01003FB7302E04FF01003FB73FB7B102B02D0142B07D00DE047F612237B614FF0200365
:401080003B610FE04FF4FA637B614FF4FA733B6108E044F24023C0F20F037B614FF001033B6100BF48F22023C1F6FF731A683B6992FBF3F33B617B697A6802FB03F23B69E7
:4010C00092FBF3F248F21C23C1F6FF731B68796901FB03F13B6991FBF3F3D31ABB60BB68184607F11C07BD4680BC704780B582B000AF0346FB7148F20523C1F6FF734FF042
:4011000000021A70FB79012B40F0E2804FF49C43C4F200034FF078021A7044F60263C4F200034FF000021A7044F60363C4F200034FF009021A7044F60463C4F200034FF0EA
:401140007F021A7044F60563C4F200034FF000021A7044F60663C4F200034FF07F021A7044F60863C4F200034FF000021A7044F60963C4F200034FF000021A7044F60A639E
:40118000C4F200034FF000021A7044F61463C4F200034FF001021A7045F68403C4F200034FF050021A7045F68503C4F200034FF00A021A7045F68603C4F200034FF02C02A4
:4011C0001A7045F68703C4F200034FF000021A7045F68A03C4F200034FF044021A7045F68B03C4F200034FF048021A7045F68C03C4F200034FF001021A7045F68E03C4F226
:4012000000034FF002021A7045F68F03C4F200034FF012021A7045F69003C4F200034FF028021A7045F69103C4F200034FF0EB021A704FF0520000F01DF945F69403C4F2A4
:4012400000034FF058021A7045F69503C4F200034FF000021A7045F69A03C4F200034FF005021A7045F69B03C4F200034FF002021A7045F69C03C4F200034FF000021A70D3
:4012800045F69D03C4F200034FF000021A704FF0000000F00DFC48F22023C1F6FF7343F23332C0F203021A604FF005004FF0010100F014FC4FF014004FF0010100F03CFDE4
:4012C0004FF01D0041F21D51C0F2000100F0BCFE07F10807BD4680BD80B586B000AFF871B9807A80BB7197F82030002B00F0BA8097F82030012B00F2B580FB7903F1FF336B
:40130000092B63D801A252F823F000BF35130000CD130000CD13000035130000CD130000CD1300005B13000081130000CD130000A7130000BB790F2B07D94FF48C73C4F689
:4013400000131B78DBB2FB7544E04FF48E73C4F600131B78DBB2FB753CE0BB790F2B07D940F21913C4F600131B78DBB2FB7531E040F21D13C4F600131B78DBB2FB7529E007
:40138000BB790F2B07D94FF48D73C4F600131B78DBB2FB751EE04FF48F73C4F600131B78DBB2FB7516E0BB790F2B07D940F21B13C4F600131B78DBB2FB750BE040F21F134F
:4013C000C4F600131B78DBB2FB7503E04FF00003FB7500BFBA8897F917304FEA4313D3183B617B883A6902FB03F3FB60FB684FEAD333BB82BB790D2B1AD8BA8ABB796FEA0B
:40140000030303F10F0342FA03F3BB8297F8203003F1FF33BA7902F10102D1B248F20822C1F6FF724FEA8303D3180A469A700DE097F8203003F1FF3348F20822C1F6FF7272
:401440004FEA8303D3184FF00F029A7097F8203003F1FF3248F20823C1F6FF73B98A23F8221003E04FF0000000F0AAFD07F11807BD4680BD80B584B000AF0346FB7100F079
:4014800095FD0346FB7344F2F863C4F2000344F2F862C4F200021278D2B242F00302D2B21A7044F2F963C4F2000344F2F962C4F200021278D2B242F00302D2B21A7045F6DC
:4014C0009203C4F20003FA791A704FF0030000F0A7FD44F2F863C4F2000344F2F862C4F200021278D2B222F00302D2B21A7044F2F963C4F2000344F2F962C4F200021278E8
:40150000D2B222F00302D2B21A70FB7B184600F051FD07F11007BD4680BD00BF80B400AFBD4680BC704700BF80B500AF4FF0280000F052FD4FF0030000F054FA4FF00500FC
:4015400000F04AFD4FF0030000F04CFA4FF00F0000F042FD4FF0030000F044FA4FF0010000F03AFD4FF0020000F03CFA4FF0050000F032FD4FF0060000F0BAF84FF00E006A
:4015800000F0B6F84FF02C0000F0B2F84FF0080000F0AEF84FF0010000F0AAF84FF00C0000F0A6F84FF0030000F0A2F84FF0050000F012FD80BD00BF80B500AF4FF00C00C6
:4015C00000F096F848F20C23C1F6FF734FF001021A7080BD80B500AF48F20D23C1F6FF731B78002B08D1FFF79FFF48F20D23C1F6FF734FF001021A70FFF7DEFF80BD00BF02
:4016000080B582B000AF02460B46FA71BB71FB79032B2BD801A252F823F000BF2D1600003D1600004D1600005D160000BB79A3F18003DBB2184600F05BF818E0BB79A3F15B
:401640004003DBB2184600F053F810E0BB79A3F16C03DBB2184600F04BF808E0BB79A3F12C03DBB2184600F043F800E000BF07F10807BD4680BD00BF80B584B000AF786032
:401680004FF00103FB737B681B78BB730CE0BB7B184600F011F8FB7B7A68D3181B78BB73FB7B03F10103FB73BB7B002BEFD107F11007BD4680BD00BF80B584B000AF0346EC
:4016C000FB7100F031F8FB794FEA1313FB73FB7B184600F02DF9FB7903F00F03FB73FB7B184600F025F907F11007BD4680BD00BF80B584B000AF0346FB7100F015F8FB7925
:401700004FEA1313FB73FB7B184600F06BF9FB7903F00F03FB73FB7B184600F063F907F11007BD4680BD00BF80B582B000AF45F22013C4F2000345F22012C4F200021278BB
:40174000D2B222F07F02D2B21A7045F22213C4F200031B78DBB223F00F03FB7145F22213C4F20003FA7942F00F02D2B21A7045F22313C4F200031B78DBB223F00F03FB71AE
:4017800045F22313C4F20003FA791A7045F22413C4F200031B78DBB223F00F03FB7145F22413C4F20003FA791A7045F22013C4F2000345F22012C4F200021278D2B222F0A6
:4017C0002002D2B21A7045F22013C4F2000345F22012C4F200021278D2B242F04002D2B21A704FF0000000F01BFC45F22013C4F2000345F22012C4F200021278D2B242F01B
:401800001002D2B21A704FF0010000F009FC45F22113C4F200031B78FB7145F22013C4F2000345F22012C4F200021278D2B222F01002D2B21A704FF0000000F0F1FBFB791D
:4018400003F00803FB7145F22013C4F2000345F22012C4F200021278D2B242F01002D2B21A704FF0010000F0DBFB45F22013C4F2000345F22012C4F200021278D2B222F0F0
:401880001002D2B21A70FB79002BAAD145F22013C4F2000345F22012C4F200021278D2B222F04002D2B21A7045F22013C4F2000345F22012C4F200021278D2B222F07F0255
:4018C000D2B21A7045F22213C4F2000345F22212C4F200021278D2B222F00F02D2B21A7045F22313C4F200031B78DBB223F00F03FB7145F22313C4F20003FA7942F00F02A0
:40190000D2B21A7045F22413C4F200031B78DBB223F00F03FB7145F22413C4F20003FA7942F00F02D2B21A7007F10807BD4680BD80B582B000AF0346FB7145F22013C4F2A4
:40194000000345F22012C4F200021278D2B242F02002D2B21A7045F22013C4F2000345F22012C4F200021278D2B222F04002D2B21A704FF0000000F053FB45F22013C4F282
:40198000000345F22012C4F200021278D2B222F00F02D2B21A7045F22013C4F2000345F22012C4F200021278D1B2FA790A43D2B242F01002D2B21A704FF0010000F030FB82
:4019C00045F22013C4F2000345F22012C4F200021278D2B222F01002D2B21A7007F10807BD4680BD80B582B000AF0346FB7145F22013C4F2000345F22012C4F20002127883
:401A0000D2B222F06002D2B21A7045F22013C4F2000345F22012C4F200021278D2B222F00F02D2B21A7045F22013C4F2000345F22012C4F200021278D1B2FA790A43D2B288
:401A400042F01002D2B21A704FF0010000F0E8FA45F22013C4F2000345F22012C4F200021278D2B222F01002D2B21A7007F10807BD4680BD80B582B000AF4FF00003FB7173
:401A800007E0FB791846FEF73BFFFB7903F10103FB71FB79012BF4D948F22D13C1F6FF734FF0FF021A7007F10807BD4680BD00BF80B582B000AF0346FB71FFF7DBFFFB7977
:401AC0001846FEF7F7FE48F22D13C1F6FF73FA791A7007F10807BD4680BD00BF80B584B000AF02460B46FA807B7100F015F90346FB7300F0E7F80346BB81FA88BB899A4236
:401B000000F0DC8044F2A233C4F200031B78DBB203F00103FB72FB7B002B32D1BB89002B02D0FB88002B2CD1BB89002B14D14FF48143C4F20003FA881A8044F28203C4F2E0
:401B4000000344F28202C4F200021278D2B222F04002D2B21A70B1E044F28203C4F2000344F28202C4F200021278D2B242F04002D2B21A704FF48143C4F20003FA881A809D
:401B80009CE0FB7A002B5CD044F20103C4F200034FF000021A7044F21003C4F200034FF001021A7044F21403C4F200034FF000021A7044F20803C4F2000344F20802C4F290
:401BC00000021278D2B202F07F02D2B21A7044F28203C4F200031B78DBB203F00803002B02D0FB88002B2CD144F20203C4F20003BA891A8044F20103C4F200034FF007020E
:401C00001A7000BF44F20103C4F200031B78DBB203F00103002BF5D144F2A233C4F2000344F2A232C4F200021278D2B222F00102D2B21A7044F20103C4F200034FF0000275
:401C40001A7044F2A233C4F200031B78DBB203F00103002B1ED044F20203C4F20003FA881A8044F20103C4F200037A79002A02D04FF0030201E04FF001021A7000BF44F20E
:401C80000103C4F200031B78DBB203F00103002BF5D113E04FF48143C4F20003FA881A8044F2A233C4F2000344F2A232C4F200021278D1B2FA7A0A43D2B21A7007F110071F
:401CC000BD4680BD80B400AF4FF48143C4F200031B889BB21846BD4680BC704780B483B000AF0346FB7144F28203C4F2000344F28202C4F200021278D2B2D1B2FA7922F0F6
:401D00000702D2B20A43D2B2D2B21A7007F10C07BD4680BC704700BF80B400AF44F28203C4F200031B78DBB203F00703DBB21846BD4680BC704700BF80B584B000AF024603
:401D40000B46FA807B7100F015F90346FB7300F0E7F80346BB81FA88BB899A4200F0DC8044F2A133C4F200031B78DBB203F00103FB72FB7B002B32D1BB89002B02D0FB8806
:401D8000002B2CD1BB89002B14D14FF48243C4F20003FA881A8044F20213C4F2000344F20212C4F200021278D2B222F04002D2B21A70B1E044F20213C4F2000344F2021275
:401DC000C4F200021278D2B242F04002D2B21A704FF48243C4F20003FA881A809CE0FB7A002B5CD044F20103C4F200034FF000021A7044F21403C4F200034FF001021A70E6
:401E000044F21003C4F200034FF000021A7044F20803C4F2000344F20802C4F200021278D2B202F07F02D2B21A7044F20213C4F200031B78DBB203F00803002B02D0FB88B2
:401E4000002B2CD144F20203C4F20003BA891A8044F20103C4F200034FF007021A7000BF44F20103C4F200031B78DBB203F00103002BF5D144F2A133C4F2000344F2A1321E
:401E8000C4F200021278D2B222F00102D2B21A7044F20103C4F200034FF000021A7044F2A133C4F200031B78DBB203F00103002B1ED044F20203C4F20003FA881A8044F242
:401EC0000103C4F200037A79002A02D04FF0030201E04FF001021A7000BF44F20103C4F200031B78DBB203F00103002BF5D113E04FF48243C4F20003FA881A8044F2A133B1
:401F0000C4F2000344F2A132C4F200021278D1B2FA7A0A43D2B21A7007F11007BD4680BD80B400AF4FF48243C4F200031B889BB21846BD4680BC704780B483B000AF0346B5
:401F4000FB7144F20213C4F2000344F20212C4F200021278D2B2D1B2FA7922F00702D2B20A43D2B2D2B21A7007F10C07BD4680BC704700BF80B400AF44F20213C4F20003C6
:401F80001B78DBB203F00703DBB21846BD4680BC704700BF000000000230800800F0058000BF013800467FF4FCAF7047EFF3108072B6704780F31088704700BFAFF300802E
:401FC00080B483B000AF0346FB7101BE07F10C07BD4680BC704700BF80B582B000AF78600BE048F23C13C1F6FF731B681846FFF7D3FF7B68A3F500437B607B68B3F5004FF0
:40200000EFD848F23413C1F6FF731B687A6802FB03F31846FFF7C0FF07F10807BD4680BD80B582B000AF0346FB80FA8848F23813C1F6FF731B7803FB02F31846FFF7ACFFEE
:4020400007F10807BD4680BD80B584B000AF03463960FB714EF60853CEF200031B68FB60FB791F2B03D94FF00000FFF7A9FFFB7903F01F0303F110034FEA8303FA68D31860
:402080001B68BB60FB7903F01F0303F110034FEA8303FA68D3183A681A60BB68184607F11007BD4680BD00BF80B582B000AF02460B46FA71BB71BB79072B03D94FF0000074
:4020C000FFF77EFFFB791F2B03D94FF00000FFF777FFFB7903F01F0303F1604303F56443BA794FEA4212D2B21A7007F10807BD4680BD00BF80B582B000AF02460B46FA717B
:40210000BB7148F20E23C1F6FF731B78002B08D100F012F848F20E23C1F6FF734FF001021A70FA79BB791046194600F021F907F10807BD4680BD00BF80B582B000AFFFF776
:4021400035FF0346FB7144F2A533C4F2000344F2A532C4F200021278D2B242F00102D2B21A7044F2B533C4F2000344F2B532C4F200021278D2B242F00102D2B21A7046F264
:402180009D03C4F200034FF001021A7046F20903C4F200034FF002021A7046F21003C4F2000346F21002C4F200021278D2B202F07F02D2B21A704FF00000FFF731FF44F200
:4021C0009433C4F2000344F29432C4F200021278D2B222F00602D2B21A7046F21203C4F2000346F21202C4F200021278D2B222F02002D2B21A7044F29433C4F2000344F22F
:402200009432C4F200021278D2B242F00102D2B21A704FF00100FFF703FF4FF02800FFF7FFFE45F2F813C4F2000345F2F812C4F200021278D2B202F07F02D2B21A7045F283
:40224000F813C4F2000345F2F812C4F200021278D2B222F04002D2B21A7044F29433C4F2000344F29432C4F200021278D2B242F00202D2B21A704FF00200FFF7D1FE44F239
:402280009433C4F2000344F29432C4F200021278D2B242F00402D2B21A7046F28403C4F200034FF000021A7046F28503C4F200034FF000021A70FB791846FFF77BFE4FF08F
:4022C000170043F29D41C0F20001FFF7BDFE4FF017004FF00701FFF7E7FE4FF0150043F29141C0F20001FFF7AFFE4FF015004FF00701FFF7D9FE4FF0180042F61D31C0F230
:402300000001FFF7A1FE4FF018004FF00701FFF7CBFE4FF0000043F22D31C0F20001FFF793FE4FF000004FF00701FFF7BDFE4FF0010043F2A131C0F20001FFF785FE4FF0B5
:4023400001004FF00701FFF7AFFE4FF0020043F21541C0F20001FFF777FE4FF002004FF00701FFF7A1FE07F10807BD4680BD00BF80B582B000AF02460B46FA71BB714FF4DC
:402380006143CEF200034FF400021A604FF46143CEF200034FF080721A604FF46143CEF200034FF001021A604FF46143CEF200034FF002021A604FF46143CEF200034FF0EC
:4023C00004021A6048F2BC23C1F6FF734FF000021A70BB79002B02D0012B08D00FE046F20903C4F200034FF002021A700FE046F20903C4F200034FF003021A7007E046F289
:402400000903C4F200034FF003021A7000BF48F2BD23C1F6FF73FA791A7048F22F23C1F6FF734FF000021A7048F23023C1F6FF734FF000021A7048F22E23C1F6FF734FF016
:4024400000021A7048F2C223C1F6FF734FF000021A7048F23123C1F6FF734FF000021A7048F22D23C1F6FF734FF000021A7046F22803C4F200034FF003021A7046F2080390
:40248000C4F200034FF080021A704FF00100FFF783FD46F21203C4F200034FF004021A7007F10807BD4680BD80B400AF48F2BC23C1F6FF734FF000021A7048F22F23C1F613
:4024C000FF734FF000021A7048F23023C1F6FF734FF000021A7048F22E23C1F6FF734FF000021A7048F2C223C1F6FF734FF000021A7048F23123C1F6FF734FF000021A700A
:4025000048F22D23C1F6FF734FF000021A7046F22803C4F200034FF003021A7046F20803C4F200034FF080021A70BD4680BC704780B400AF48F22F23C1F6FF731B78DBB23E
:402540001846BD4680BC704790B484B000AF396013460246FA71BB80FB79002B00F09680FB79082B00F29280FB7903F1FF33DBB24FEA03137B737A7B46F28803C4F20003DB
:40258000D318BB60B888F97948F24C22C1F6FF720B464FEA43035B184FEA8303D318DB889BB2C3F50073984210D9F97948F24C22C1F6FF720B464FEA43035B184FEA8303C4
:4025C000D318DB889BB2C3F50073BB807A7B46F20C03C4F20003D3181846BB884FEA13239BB2DCB2F97948F24C22C1F6FF720B464FEA43035B184FEA8303D318DB78DBB200
:402600002343DBB203707A7B46F20D03C4F20003D318BA88D2B21A703B68002B11D04FF00003FB8109E0FB893A68D3181A78BB681A70FB8903F10103FB81FA89BB889A42C3
:40264000F1D3F97948F24C22C1F6FF720B464FEA43035B184FEA8303D3184FF000025A707A7B46F20E03C4F20003D3181846F97948F24C22C1F6FF720B464FEA43035B1897
:402680004FEA8303D3185B79DBB2037007F11007BD4690BC704700BF80B485B000AF0346FB71FB79002B2ED0FB79082B2BD8FB7903F1FF33DBB24FEA0313FB73F97948F224
:4026C0004C22C1F6FF720B464FEA43035B184FEA8303D3184FF000025A70FA7B46F20E03C4F20003D3181846F97948F24C22C1F6FF720B464FEA43035B184FEA8303D3185D
:402700005B79DBB2037007F11407BD4680BC704780B582B000AF4FF00003FB714FF4C043C4F200031B78DBB2DBB25BB2002B1EDA46F20103C4F200031B78DBB2212B15D1D5
:4027400048F23C23C1F6FF734FF007021A8048F23C23C1F6FF7348F24012C1F6FF725A6000F0C4FB0346FB7100BF58E057E04FF4C043C4F200031B78DBB2DBB25BB2002B0F
:402780004DDB46F20103C4F200031B78DBB2202B02D0222B23D041E048F23C23C1F6FF734FF007021A8048F23C23C1F6FF7348F24012C1F6FF725A6048F22823C1F6FF73DC
:4027C0001B78DBB243F00103DAB248F22823C1F6FF731A7000F02EFC0346FB711FE046F20203C4F200031B78DBB21A4648F22623C1F6FF731A8048F22823C1F6FF731B78F3
:40280000DBB243F00203DAB248F22823C1F6FF731A7000F0E5FC0346FB7100E000BFFB79184607F10807BD4680BD00BF80B500AF48F22823C1F6FF734FF000021A7048F27B
:402840002423C1F6FF731B78DBB21846FFF724FF80BD00BF80B485B000AF78604FF00003FB8103E0FB8903F10103FB81FB897A68D3181B78002BF5D1FB89184607F1140702
:40288000BD4680BC704700BF80B584B000AF78604FF00003BB817868FFF7DCFF0346FB8148F22523C1F6FF731B78DBB2194648F24C22C1F6FF720B464FEA43035B184FEA09
:4028C0008303D31803F108031B889BB2FA899A4216D948F22523C1F6FF731B78DBB2194648F24C22C1F6FF720B464FEA43035B184FEA8303D31803F108031B889BB200E074
:40290000FB897B8148F22523C1F6FF731B78D9B2BB897A68D2187B89084611461A46FFF713FEFA897B89D31AFB81FB89002B18D148F22523C1F6FF731B78DBB2194648F242
:402940004C22C1F6FF720B464FEA43035B184FEA8303D31803F108031B889BB27A899A422AD1BA897B89D318BB8100BF48F22523C1F6FF731B78DBB2194648F24C22C1F655
:40298000FF720B464FEA43035B184FEA8303D3185B78DBB2002BE9D0FB89002B0CD148F22523C1F6FF731B78DBB218464FF000014FF00002FFF7C8FDFB89002B7FF470AF43
:4029C00007F11007BD4680BD80B582B000AF47F2F853C0F2000307F104021B88138048F22523C1F6FF731B78DAB207F10403104619464FF00202FFF7A7FD07F10807BD46A0
:402A000080BD00BF80B483B000AF4FF00003FB7148F2BC23C1F6FF731B78DBB2002B14D148F22823C1F6FF731B78DBB2002B0CD048F22823C1F6FF731B78FB7148F228235D
:402A4000C1F6FF734FF000021A70FB79184607F10C07BD4680BC704780B483B000AF48F24013C1F6FF73DB78DBB27B607B684FEA032248F24013C1F6FF739B78DBB213431B
:402A80007B607B684FEA032248F24013C1F6FF735B78DBB213437B607B684FEA032248F24013C1F6FF731B78DBB213437B607B68184607F10C07BD4680BC704780B400AF46
:402AC00048F24013C1F6FF731B79DBB21846BD4680BC704780B400AF48F24013C1F6FF735B79DBB21846BD4680BC704780B400AF48F24013C1F6FF739B79DBB21846BD46C2
:402B000080BC704780B400AF48F22623C1F6FF731B889BB21846BD4680BC704780B582B000AF46F22803C4F200031B78BB71BB7903F01003002B00F08C804FF00103FB71CE
:402B4000BB795BB2002B18DABB7903F00F03012B03D04FF00003FB7122E000F07FF848F22C23C1F6FF731B78DBB2DBB25BB2002B16DA4FF00003FB7112E0BB7903F0400317
:402B8000002B02D000F0BEF80AE0BB7903F02003002B02D000F0DEF802E04FF00003FB71FB79002B55D046F22803C4F200031B78BB71BB795BB2002B4BDB48F23223C1F674
:402BC000FF731B78DAB248F24823C1F6FF731B78DBB21343BB7146F22903C4F20003BA791A7046F22903C4F200031B78DBB2BA799A422ED148F22C23C1F6FF731B78FB71FE
:402C000046F22803C4F200031B78DBB223F07F03BB71BB79002B13D146F22803C4F2000348F22C22C1F6FF721278D2B21A7046F22803C4F200031B78DBB203F00F03FB7143
:402C400048F22C23C1F6FF731B78DBB2FA799A42D0D107F10807BD4680BD00BF80B582B000AF46F22803C4F200031B78FB7146F22803C4F20003FA791A7046F22803C4F229
:402C800000031B78FB71FB795BB2002B06DA48F22C23C1F6FF73FA791A702EE04FF0020000F0F4FA4FF4C043C4F200031B78DBB203F06003202B08D0402B0BD0002B0ED1C2
:402CC00000F0F2FB0346FB710DE001F0CDFE0346FB7108E001F07EFE0346FB7103E04FF00003FB7100BFFB79002B06D148F22C23C1F6FF734FF003021A7007F10807BD468A
:402D000080BD00BF80B500AF48F2BC23C1F6FF731B78DBB2062B1AD801A252F823F000BF4F2D00004F2D00003D2D00004F2D0000432D00004F2D0000492D000000F04AF9FC
:402D400006E000F037FA03E000F06EFA00E000BF80BD00BF80B500AF48F2BC23C1F6FF731B78DBB2062B23D801A252F823F000BFB12D0000B12D00008D2D0000B12D0000F1
:402D8000932D0000B12D0000992D000000F028F90FE000F091F90CE04FF0030000F076FA48F22C23C1F6FF734FF003021A7000E000BF80BD80B483B000AF4FF00003FB7187
:402DC00048F22D23C1F6FF731B78DBB21A4648F2BA23C1F6FF731B889BB2D3189AB248F2BA23C1F6FF731A802BE0FB7903F1804303F5C0431A4648F23C23C1F6FF735B6849
:402E00001B78DBB2137048F23C23C1F6FF735B6803F1010248F23C23C1F6FF735A60FB7903F10103FB7148F23C23C1F6FF731B889BB203F1FF339AB248F23C23C1F6FF7339
:402E40001A8048F23C23C1F6FF731B889BB2002B02D0FB79072BC8D948F22D23C1F6FF731B78DBB2082B02D0FB79002B1ED048F23223C1F6FF731B78DBB283F07F036FEA37
:402E80000303DAB248F23223C1F6FF731A7048F22C23C1F6FF734FF00F021A7048F2BC23C1F6FF734FF002021A700DE048F22C23C1F6FF734FF002021A7048F2BC23C1F667
:402EC000FF734FF002021A7048F22D23C1F6FF73FA791A7048F24823C1F6FF73FA791A7007F10C07BD4680BC704700BF80B582B000AF48F23C23C1F6FF731B889BB2002B65
:402F000002D100F03BF832E048F2BC23C1F6FF734FF002021A7048F23223C1F6FF734FF000021A7000F0DEF946F20703C4F200031B78DBB24FEA03239AB246F20603C4F273
:402F400000031B78DBB213439BB2FB8048F23C23C1F6FF731B889BB2FA889A4205D248F23C23C1F6FF73FA881A80FFF723FF4FF00103184607F10807BD4680BD80B400AF68
:402F800048F2BC23C1F6FF734FF002021A7048F23223C1F6FF734FF080021A7048F22C23C1F6FF734FF00F021A7048F22D23C1F6FF734FF000021A7048F24823C1F6FF7327
:402FC0004FF000021A704FF001031846BD4680BC704700BF80B500AFFFF7ECFE80BD00BF80B500AF48F22D23C1F6FF731B78DBB21A4648F2BA23C1F6FF731B889BB2D318BE
:403000009AB248F2BA23C1F6FF731A8048F2BC23C1F6FF734FF000021A704FF0010000F035F948F22C23C1F6FF734FF003021A7080BD00BF80B582B000AF48F2BC23C1F69D
:40304000FF734FF004021A7048F23223C1F6FF734FF080021A7000F045F946F20703C4F200031B78DBB24FEA03239AB246F20603C4F200031B78DBB213439BB2FB8048F2A6
:403080003C23C1F6FF731B889BB2FA889A4205D248F23C23C1F6FF73FA881A8048F22C23C1F6FF734FF00B021A704FF00103184607F10807BD4680BD80B483B000AF4FF0C0
:4030C0000003BB7146F22903C4F200031B78DBB203F00F03DBB2A3F10203FB71FB799AB248F2BA23C1F6FF731B889BB2D3189AB248F2BA23C1F6FF731A802EE048F23C2325
:40310000C1F6FF735A68BB7903F1804303F5C0431B78DBB2137048F23C23C1F6FF735B6803F1010248F23C23C1F6FF735A60BB7903F10103BB71FB7903F1FF33FB7148F28B
:403140003C23C1F6FF731B889BB203F1FF339AB248F23C23C1F6FF731A8048F23C23C1F6FF731B889BB2002B02D0FB79002BC5D148F24823C1F6FF73FA791A7048F23223CB
:40318000C1F6FF731B78DBB283F07F036FEA0303DAB248F23223C1F6FF731A7048F22C23C1F6FF734FF00B021A7007F10C07BD4680BC704780B500AF48F2BC23C1F6FF73F5
:4031C0004FF000021A704FF0010000F05FF848F22C23C1F6FF734FF003021A7080BD00BF80B400AF48F2BC23C1F6FF734FF006021A7048F22C23C1F6FF734FF006021A7088
:4032000048F23223C1F6FF734FF080021A7048F24823C1F6FF734FF000021A704FF001031846BD4680BC704780B500AF48F2C223C1F6FF731B78DBB2002B14D046F20803BD
:40324000C4F2000348F2C222C1F6FF721278D2B262F07F02D2B21A7048F2C223C1F6FF734FF000021A7048F2BC23C1F6FF734FF000021A704FF0010000F008F848F22C2387
:40328000C1F6FF734FF003021A7080BD80B483B000AF0346FB7148F23C23C1F6FF739B68002B19D048F23C23C1F6FF739B68FA791A7048F23C23C1F6FF739A6848F2BA2399
:4032C000C1F6FF731B889BB2538048F23C23C1F6FF734FF000029A6007F10C07BD4680BC704700BF80B400AF48F2BA23C1F6FF734FF000021A8048F23C23C1F6FF739B6862
:40330000002B0FD048F23C23C1F6FF739B684FF000021A7048F23C23C1F6FF739B684FF000025A80BD4680BC704700BF80B400AF46F20E03C4F200031B7848F24C23C1F686
:40334000FF731B7BDBB203F00303012B0FD048F24C23C1F6FF73DB7BDBB283F07F036FEA0303DAB248F24C23C1F6FF73DA7348F24C23C1F6FF734FF001025A7346F20B03D9
:40338000C4F2000346F20B02C4F200021278D2B222F00102D2B21A70BD4680BC704700BF80B400AF46F21E03C4F200031B7848F24C23C1F6FF731B7EDBB203F00303012BCC
:4033C0000FD048F24C23C1F6FF73DB7EDBB283F07F036FEA0303DAB248F24C23C1F6FF73DA7648F24C23C1F6FF734FF001025A7646F20B03C4F2000346F20B02C4F2000254
:403400001278D2B222F00202D2B21A70BD4680BC704700BF80B400AF46F22E03C4F200031B7848F24C23C1F6FF7393F82430DBB203F00303012B11D048F24C23C1F6FF73F7
:4034400093F82730DBB283F07F036FEA0303DAB248F24C23C1F6FF7383F8272048F24C23C1F6FF734FF0010283F8252046F20B03C4F2000346F20B02C4F200021278D2B28B
:4034800022F00402D2B21A70BD4680BC704700BF80B400AFBD4680BC704700BF80B500AFFFF702F880BD00BF80B586B000AF4FF00003FB754FF000033B6148F23C23C1F6CF
:4034C000FF734FF000021A804FF4C043C4F200031B78DBB2DBB25BB2002B80F2948146F20103C4F200031B78DBB20A2B00F2F78201A252F823F000BFCB360000DF3A000086
:40350000DF3A0000DF3A0000DF3A0000DF3A000025350000DF3A0000A1370000DF3A0000CB37000046F20303C4F200031B78DBB2012B15D101F04CF8B860BB685A6848F22C
:403540003C23C1F6FF735A6048F23C23C1F6FF734FF012021A80FFF7C9FC0346FB75C0E246F20303C4F200031B78DBB2022B36D146F20203C4F200031B78DBB2184600F095
:40358000F7FFB860BB68002B00F0AB82BB685A6848F23C23C1F6FF735A6048F23C23C1F6FF735B6803F103031B78DBB24FEA03239AB248F23C23C1F6FF735B6803F1020369
:4035C0001B78DBB213439BB29AB248F23C23C1F6FF731A80FFF78AFC0346FB7581E246F20303C4F200031B78DBB2032B68D14FF00003FB7347F26863C0F200033B610AE05B
:403600003B691B78FB71FB793A69D3183B61FB7B03F10103FB7346F20203C4F200031B78DBB2FA7B9A4204D23B691B78DBB2002BE6D146F20203C4F200031B78DBB2EE2B5B
:4036400004D147F26873C0F200033B6146F20203C4F200031B78DBB2002B17D046F20203C4F200031B78DAB247F21063C0F200031B7C9A420AD148F2C420C1F6FF7000F0F0
:403680003DFA48F2C423C1F6FF733B613B691B78DBB2002B00F025823B691B78DBB21A4648F23C23C1F6FF731A8048F23C23C1F6FF733A695A60FFF719FC0346FB7510E212
:4036C00001F0D2F90346FB750BE24FF4C043C4F200031B78DBB203F00303002B37D0022B5CD148F23C23C1F6FF734FF002021A8046F20403C4F200031B78DBB203F07F019A
:4037000048F24C22C1F6FF720B464FEA43035B184FEA8303D3189B78DAB248F21023C1F6FF731A7048F21023C1F6FF734FF000025A7048F23C23C1F6FF7348F21022C1F687
:40374000FF725A60FFF7D2FB0346FB7527E048F23C23C1F6FF734FF002021A8048F23123C1F6FF731B78DAB248F21023C1F6FF731A7048F21023C1F6FF734FF000025A7065
:4037800048F23C23C1F6FF7348F21022C1F6FF725A60FFF7ABFB0346FB7500E000BFA7E148F23C23C1F6FF734FF001021A8048F23C23C1F6FF7348F22F22C1F6FF725A60B0
:4037C000FFF794FB0346FB7592E148F23C23C1F6FF734FF001021A8046F20403C4F200031B78DBB21A4648F23823C1F6FF73D21848F23C23C1F6FF735A60FFF777FB03462D
:40380000FB7500BF74E146F20103C4F200031B78DBB203F1FF330A2B00F2658101A252F823F000BF3F390000E73A00000F3A0000E73A000051380000E73A0000E73A00002F
:40384000E73A000071380000E73A0000E538000046F20203C4F200031B78DAB248F2C223C1F6FF731A70FFF7BBFC0346FB753FE146F20203C4F200031B78BB71BB79002BBF
:4038800007D0BB7903F1FF33DBB2184600F070FEB860BB79002B02D0BB68002B03D1BB79002B40F0228148F22F23C1F6FF731B78DBB2BA799A4210D048F22F23C1F6FF7378
:4038C000BA791A7048F22E23C1F6FF734FF001021A704FF0010000F067FAFFF781FC0346FB7502E101F02EF80346002B00F0FF8046F20403C4F200031B787B7148F23023ED
:40390000C1F6FF737A791A7048F22E23C1F6FF734FF001021A7000F081FC7A79797948F23823C1F6FF735B5CD9B248F2B823C1F6FF739954FFF754FC0346FB75D7E04FF4EB
:40394000C043C4F200031B78DBB203F00303012B2BD0012B0ED3022B52D146F20203C4F200031B78DBB2002B4BD100F009FF0346FB7546E046F20203C4F200031B78DBB2A4
:40398000012B40D148F23123C1F6FF731B78DBB223F00203DAB248F23123C1F6FF731A70FFF71EFC0346FB752DE046F20403C4F200031B78DBB2012B27D846F20403C4F200
:4039C00000031B78DBB21A46194648F2C023C1F6FF735B5CD9B246F20203C4F200031B78DBB26FEA0303DBB20B40D9B248F2C023C1F6FF739954FFF7F3FB0346FB7504E0D1
:403A000004E000BF02E000BF00E000BF70E04FF4C043C4F200031B78DBB203F00303012B2BD0012B0ED3022B52D146F20203C4F200031B78DBB2002B4BD100F009FE03461A
:403A4000FB7546E046F20203C4F200031B78DBB2012B40D148F23123C1F6FF731B78DBB243F00203DAB248F23123C1F6FF731A70FFF7B6FB0346FB752DE046F20403C4F21F
:403A800000031B78DBB2012B27D846F20403C4F200031B78DBB21A46194648F2C023C1F6FF735B5CD9B246F20203C4F200031B78DBB26FEA0303DBB20B40D9B248F2C02364
:403AC000C1F6FF739954FFF78BFB0346FB7504E004E000BF02E000BF00E000BF08E000BF06E000BF04E000BF02E000BF00E000BFFB7D184607F11807BD4680BD90B488B0DC
:403B000000AF78604FF00003BB7747F2FC53C0F2000307F10C040FCB84E80F007B68002B3AD07B684FF022021A707B6803F101034FF003021A704FF00203FB7729E0BB7F66
:403B400003F1924303F580731B787B77BB7F03F10103BB77FB7F7A68D3187A7F4FEA1212D2B207F120018A1812F8142C1A70FB7F03F102037A68D3187A7F02F00F0207F1C4
:403B800020018A1812F8142C1A70FB7F03F10403FB77FB7F212BD2D907F12007BD4690BC704700BF80B483B000AF4FF00103FB714FF00003BB71E5E0BB7903F1804303F557
:403BC000C1434FF00C021A70F97948F24C22C1F6FF720B464FEA43035B184FEA8303D3185B79DBB2002B25D0F97948F24C22C1F6FF720B464FEA43035B184FEA8303D3180B
:403C00001B79DBB2DBB25BB2002B09DABA7946F20E03C4F20003D3184FF00C021A7012E0BA7946F20E03C4F20003D3184FF008021A7008E0BA7946F20E03C4F20003D318D7
:403C40004FF080021A70BA7946F20C03C4F20003D3181846F97948F24C22C1F6FF720B464FEA43035B184FEA8303D31803F108031B889BB24FEA13239BB2DBB20370BA7970
:403C800046F20D03C4F20003D3181846F97948F24C22C1F6FF720B464FEA43035B184FEA8303D31803F108031B889BB2DBB20370BA7946F28603C4F20003D3181846F97934
:403CC00048F24C22C1F6FF720B464FEA43035B184FEA8303D318DB889BB2DBB20370BA7946F28703C4F20003D3181846F97948F24C22C1F6FF720B464FEA43035B184FEAA2
:403D00008303D318DB889BB24FEA13239BB2DBB20370BA7946F28403C4F20003D3181846F97948F24C22C1F6FF720B464FEA43035B184FEA8303D318DB889BB2DBB20370D3
:403D4000BA7946F28503C4F20003D3181846F97948F24C22C1F6FF720B464FEA43035B184FEA8303D318DB889BB24FEA13239BB2DBB20370FB7903F10103FB71BB7903F1B3
:403D80001003BB71BB795BB2002BBFF615AF46F20A03C4F200034FF0FF021A7007F10C07BD4680BC704700BF80B588B000AF0346FB714FF000037B834FF00003FB7770E042
:403DC000F97F48F24C22C1F6FF720B464FEA43035B184FEA8303D3184FF000021A70F97F48F24C22C1F6FF720B464FEA43035B184FEA8303D3184FF000029A70F97F48F291
:403E00004C22C1F6FF720B464FEA43035B184FEA8303D3184FF000025A70F97F48F24C22C1F6FF720B464FEA43035B184FEA8303D3184FF00002DA70F97F48F24C22C1F65D
:403E4000FF720B464FEA43035B184FEA8303D3184FF000025A71F97F48F24C22C1F6FF720B464FEA43035B184FEA8303D31803F108034FF000021A80F97F48F24C22C1F6F2
:403E8000FF720B464FEA43035B184FEA8303D31803F108034FF000029A70FB7F03F10103FB77FB7F082B8BD9FB79002B1AD04FF000037B7713E07A7F48F23823C1F6FF73FE
:403EC0004FF0000199547A7F48F2B823C1F6FF734FF0000199547B7F03F101037B777B7F012BE8D948F22F23C1F6FF731B78DBB2002B00F08E8148F22F23C1F6FF731B781F
:403F0000DBB203F1FF33DBB2184600F031FB38613B695B68FB60FB6803F107031B7803F04003002B0ED048F23123C1F6FF731B78DBB243F00103DAB248F23123C1F6FF73E8
:403F40001A700DE048F23123C1F6FF731B78DBB223F00103DAB248F23123C1F6FF731A703B6903F108033B613B691B78FB774FF001037B77EBE03B695B687B614FF00003A2
:403F8000BB77DBE07A7F7B699B7803F07F039A4240F0CC80797F48F24C22C1F6FF720B464FEA43035B184FEA8303D31803F108031B889AB27B699B889A4211D2797F7B6912
:403FC000988848F24C22C1F6FF720B464FEA43035B184FEA8303D31803F1080302461A807B691B781A4648F23823C1F6FF739B5CDAB27B695B789A4240F098807B69DB78D9
:4040000003F00303FB727B699B78DBB25BB2002B36DA797F48F24C22C1F6FF720B464FEA43035B184FEA8303D3184FF001025A70787FFB7A012B02D14FF0070101E04FF0BB
:404040000D0148F24C22C1F6FF7203464FEA43031B184FEA8303D3180A465A717B699B790A2B03D07B699B79022B3FD1FB7A032B3CD048F22523C1F6FF737A7F1A7035E07B
:40408000797F48F24C22C1F6FF720B464FEA43035B184FEA8303D3184FF000025A70787FFB7A012B02D14FF0050101E04FF0090148F24C22C1F6FF7203464FEA43031B189B
:4040C0004FEA8303D3180A465A717B699B790A2B03D07B699B79022B08D1FB7A032B05D048F22423C1F6FF737A7F1A70797F7B69987848F24C22C1F6FF720B464FEA4303CC
:404100005B184FEA8303D31802461A71797F7B69D87848F24C22C1F6FF720B464FEA43035B184FEA8303D31802461A707B6903F108037B61BB7F03F10103BB77BA7FFB7FFE
:404140009A42FFF41FAF7B7F03F101037B777B7F082B7FF610AF3B695B687B614FF000037B771CE07B699B7803F07F017B69187848F24C22C1F6FF720B464FEA43035B18F9
:404180004FEA8303D31803F1080302469A707B6903F108037B617B7F03F101037B777A7FFB7F9A42DED300F027FA024648F23423C1F6FF731A604FF00103FB7724E0F97FA3
:4041C00048F24C22C1F6FF720B464FEA43035B184FEA8303D3187A8BDA80F97F48F24C22C1F6FF720B464FEA43035B184FEA8303D31803F108031B889AB27B8BD3187B8391
:40420000FB7F03F10103FB77FB7F082BD7D9FFF7C9FC07F12007BD4680BD00BF80B584B000AF48F22F23C1F6FF731B78DBB2002B00F0998148F22F23C1F6FF731B78DBB26D
:4042400003F1FF33DBB2184600F092F978607B6803F108037B607B681B78FB707B685B68BB604FF00003FB7378E1BB681B781A4648F23823C1F6FF739B5CDAB2BB681B7865
:40428000194648F2B823C1F6FF735B5CDBB29A4200F05C81BB681B781A4648F23823C1F6FF739B5CDAB2BB685B789A4240F04E81BB681A7846F20403C4F200031B78DBB27F
:4042C0009A4240F04381BB689B7803F07F03BB70BB7803F1FF33DBB24FEA03137B70BB68DB7803F003033B70BB689B78DBB25BB2002B25DAB97848F24C22C1F6FF720B4692
:404300004FEA43035B184FEA8303D3184FF001025A70B8783B78012B02D14FF0070101E04FF00D0148F24C22C1F6FF7203464FEA43031B184FEA8303D3180A465A7124E0EA
:40434000B97848F24C22C1F6FF720B464FEA43035B184FEA8303D3184FF000025A70B8783B78012B02D14FF0050101E04FF0090148F24C22C1F6FF7203464FEA43031B1828
:404380004FEA8303D3180A465A717A7846F20E03C4F20003D3184FF001021A70B978BB68988848F24C22C1F6FF720B464FEA43035B184FEA8303D31803F1080302461A807B
:4043C000B978BB68987848F24C22C1F6FF720B464FEA43035B184FEA8303D31802461A71B978BB68D87848F24C22C1F6FF720B464FEA43035B184FEA8303D31802461A7096
:40440000B97848F24C22C1F6FF720B464FEA43035B184FEA8303D3184FF00002DA707A7846F20C03C4F20003D3181846B97848F24C22C1F6FF720B464FEA43035B184FEA4B
:404440008303D31803F108031B889BB24FEA13239BB2DBB203707A7846F20D03C4F20003D3181846B97848F24C22C1F6FF720B464FEA43035B184FEA8303D31803F10803F7
:404480001B889BB2DBB203707A7846F28603C4F20003D3181846B97848F24C22C1F6FF720B464FEA43035B184FEA8303D318DB889BB2DBB203707A7846F28703C4F200034C
:4044C000D3181846B97848F24C22C1F6FF720B464FEA43035B184FEA8303D318DB889BB24FEA13239BB2DBB203707A7846F28403C4F20003D3181846B97848F24C22C1F6D6
:40450000FF720B464FEA43035B184FEA8303D318DB889BB2DBB203707A7846F28503C4F20003D3181846B97848F24C22C1F6FF720B464FEA43035B184FEA8303D318DB8868
:404540009BB24FEA13239BB2DBB20370BB6803F10803BB60FB7B03F10103FB73FA7BFB789A42FFF482AE07F11007BD4680BD00BF80B485B000AF0346FB7148F2BD23C1F686
:40458000FF731B78DBB247F26072C0F200024FEAC303D3185B68FB60FB6803F10803FB60FB681B78FA799A4203D34FF00003FB6006E0FB794FEAC303FA68D3185B68FB6069
:4045C000FB68184607F11407BD4680BC704700BF80B400AF48F2BD23C1F6FF731B78DBB247F26072C0F200024FEAC303D3185B681846BD4680BC704780B584B000AF48F2DA
:404600002F23C1F6FF731B78DBB203F1FF33DBB21846FFF7ADFFB860BB68002B0FD0BB685B681B79FB71FB7903F102034FEAC303BA68D318BB60BB685B68FB6002E04FF00B
:404640000003FB60FB68184607F11007BD4680BD80B582B000AF4FF00003FB7146F20403C4F200031B78DBB203F07F03BB71BB7903F1FF33DBB24FEA03137B71BB79002BCE
:4046800078D0BB79082B75D8B979B87948F24C22C1F6FF7203464FEA43031B184FEA8303D3189B78DBB243F00103D8B248F24C22C1F6FF720B464FEA43035B184FEA8303F3
:4046C000D31802469A70B97948F24C22C1F6FF720B464FEA43035B184FEA8303D3184FF00002DA70B979B87948F24C22C1F6FF7203464FEA43031B184FEA8303D3185B7858
:40470000DBB243F00203D8B248F24C22C1F6FF720B464FEA43035B184FEA8303D31802465A70B97948F24C22C1F6FF720B464FEA43035B184FEA8303D3181B79DBB2DBB2BE
:404740005BB2002B09DA7A7946F20E03C4F20003D3184FF08D021A7008E07A7946F20E03C4F20003D3184FF089021A70FEF738FD0346FB71FB79184607F10807BD4680BDD2
:4047800080B582B000AF4FF00003FB7146F20403C4F200031B78DBB203F07F03BB71BB7903F1FF33DBB24FEA03137B71BB79002B00F0C180BB79082B00F2BD80B979B879D1
:4047C00048F24C22C1F6FF7203464FEA43031B184FEA8303D3189B78DBB223F00103D8B248F24C22C1F6FF720B464FEA43035B184FEA8303D31802469A70B97948F24C221A
:40480000C1F6FF720B464FEA43035B184FEA8303D3184FF00002DA707A7946F20C03C4F20003D3181A46797946F20C03C4F20003CB181B78DBB203F07F03DBB21370B979EE
:40484000B87948F24C22C1F6FF7203464FEA43031B184FEA8303D3185B78DBB223F00203D8B248F24C22C1F6FF720B464FEA43035B184FEA8303D31802465A70B97948F255
:404880004C22C1F6FF720B464FEA43035B184FEA8303D3181B79DBB2DBB25BB2002B23DAB97948F24C22C1F6FF720B464FEA43035B184FEA8303D3185B78DBB2012B09D13D
:4048C0007A7946F20E03C4F20003D3184FF00C021A702CE07A7946F20E03C4F20003D3184FF00D021A7022E0B97948F24C22C1F6FF720B464FEA43035B184FEA8303D3184C
:404900005B78DBB2012B09D17A7946F20E03C4F20003D3184FF008021A7008E07A7946F20E03C4F20003D3184FF009021A70FEF757FC0346FB71FB79184607F10807BD46E9
:4049400080BD00BF80B584B000AF4FF00103FB7346F20403C4F200031B78BB7348F22F23C1F6FF731B78DBB203F1FF33DBB21846FFF7FEFDB860BB685B681B79FB71BA7BAF
:40498000FB799A4202D2BB7B012B03D94FF00003FB7318E0BA7BB97B48F23823C1F6FF735B5CD9B248F2B823C1F6FF739954BA7B46F20203C4F200031B78D9B248F238237B
:4049C000C1F6FF739954FB7B184607F11007BD4680BD00BF80B582B000AF4FF00003FB714FF4C043C4F200031B78DBB2DBB25BB2002B21DA46F20103C4F200031B78DBB207
:404A0000012B18D148F23C23C1F6FF7347F27C72C0F200025A6047F27C73C0F200031B781A4648F23C23C1F6FF731A80FEF75EFA0346FB7100E000BFFB79184607F1080764
:404A4000BD4680BD80B400AF45F26113C4F200031B78DBB203F002034FEA5303DBB21846BD4680BC704700BF80B582B000AF4FF00003FB714FF00003BB714FF4C043C4F23A
:404A800000031B78DBB203F00303012B02D0022B07D01EE046F20403C4F200031B78BB7118E046F20403C4F200031B78DBB203F07F0148F24C22C1F6FF720B464FEA430300
:404AC0005B184FEA8303D31803F108039B78BB7100E000BF48F23423C1F6FF731A68BB79D3181B78022B04D0032B08D0012B08D004E0FDF70DFE0346FB7103E002E000BFA7
:404B000000E000BFFB79184607F10807BD4680BD81F0004102E000BF83F0004330B54FEA41044FEA430594EA050F08BF90EA020F1FBF54EA000C55EA020C7FEA645C7FEAE5
:404B4000655C00F0E2804FEA5454D4EB5555B8BF6D420CDD2C4480EA020281EA030382EA000083EA010180EA020281EA0303362D88BF30BD11F0004F4FEA01314FF4801C8F
:404B80004CEA113102D0404261EB410113F0004F4FEA03334CEA133302D0524263EB430394EA050F00F0A780A4F10104D5F1200E0DDB02FA0EFC22FA05F2801841F1000161
:404BC00003FA0EF2801843FA05F359410EE0A5F120050EF1200E012A03FA0EFC28BF4CF0020C43FA05F3C01851EBE37101F0004507D54FF0000EDCF1000C7EEB00006EEB81
:404C00000101B1F5801F1BD3B1F5001F0CD349085FEA30004FEA3C0C04F101044FEA445212F5800F80F09A80BCF1004F08BF5FEA500C50F1000041EB045141EA050130BD1F
:404C40005FEA4C0C404141EB010111F4801FA4F10104E9D191F0000F04BF01460020B1FA81F308BF2033A3F10B03B3F120020CDA0C3208DD02F1140CC2F10C0201FA0CF0BD
:404C800021FA02F10CE002F11402D8BFC2F1200C01FA02F120FA0CFCDCBF41EA0C019040E41AA2BF01EB0451294330BD6FEA04041F3C1CDA0C340EDC04F11404C4F120020F
:404CC00020FA04F001FA02F340EA030021FA04F345EA030130BDC4F10C04C4F1200220FA02F001FA04F340EA0300294630BD21FA04F0294630BD94F0000F83F4801306BF67
:404D000081F480110134013D4EE77FEA645C18BF7FEA655C29D094EA050F08BF90EA020F05D054EA000C04BF1946104630BD91EA030F1EBF0021002030BD5FEA545C05D1D3
:404D40004000494128BF41F0004130BD14F580043CBF01F5801130BD01F0004545F0FE4141F470014FF0000030BD7FEA645C1ABF194610467FEA655C1CBF0B46024650EA1C
:404D8000013406BF52EA033591EA030F41F4002130BD00BF90F0000F04BF0021704730B54FF4806404F132044FF000054FF0000150E700BF90F0000F04BF0021704730B50C
:404DC0004FF4806404F1320410F0004548BF40424FF000013EE700BF42004FEAE2014FEA31014FEA02701FBF12F07F4393F07F4F81F06051704792F0000F14BF93F07F4F7A
:404E0000704730B54FF4607401F0004521F0004120E700BF50EA010208BF704730B54FF000050AE050EA010208BF704730B511F0004502D5404261EB41014FF4806404F1BA
:404E400032045FEA915C3FF4DCAE4FF003025FEADC0C18BF03325FEADC0C18BF033202EBDC02C2F1200300FA03FC20FA02F001FA03FE40EA0E0021FA02F11444C1E600BFA5
:404E80004FF0FF3C06E000BF4FF0010C02E000BF4FF0010C4DF804CD4FEA410C7FEA6C5C4FEA430C18BF7FEA6C5C1BD001B050EA410C0CBF52EA430C91EA030F02BF90EAFC
:404EC000020F0020704710F1000F91EA030F58BF994208BF90422CBFD8176FEAE37040F0010070474FEA410C7FEA6C5C02D150EA013C07D14FEA430C7FEA6C5CD6D152EABF
:404F0000033CD3D05DF8040B704700BF8446104662468C461946634600E000BF01B5FFF7B7FF002848BF10F1000F01BD4DF808EDFFF7F4FF0CBF012000205DF808FB00BFCF
:404F40004DF808EDFFF7EAFF34BF012000205DF808FB00BF4DF808EDFFF7E0FF94BF012000205DF808FB00BF4DF808EDFFF7CEFF94BF012000205DF808FB00BF4DF808ED31
:404F8000FFF7C4FF34BF012000205DF808FB00BF38B50E4D0E4B0024E81A8510AC4205D00B4951F8242090470134F7E702F0A8FC0849094A541AA5100024AC4205D0054B6F
:404FC00053F8240080470134F7E738BD0C7900000C7900000C7900001479000010B50023934203D0CC5CC4540133F9E710BD82180346934202D003F8011BFAE7704700006D
:405000000EB400B59CB0029006906FF000401DAB049007904FF402710A4853F8042BADF814104FF6FF71ADF81610006802A9019300F062F8029B00221A701CB05DF804EBDE
:4050400003B07047AC81FF1F2DE9F8439368064689461446002B41D1928912F4906F3DD0616903254D43236927680220FF1A95FBF0F5791C02F48062A94211B2A8BF3D182C
:40508000304679B1294601F02FFC8046A0B13A462169FFF7A3FFA38923F4906040F08002A28113E019462A4601F05DFF804668B93046216901F0C8FBA0890C2340F0400290
:4050C00033604FF0FF30A281BDE8F88308EB07016561ED1BC4F810802160A560A368002B06DD206800F8019BA2682060511EA1600020BDE8F88300002DE9F0479CB0039333
:405100008B890D4603F0800114460AB2064662B12B6953B9402101F0E7FB2860286110B90C213160D3E04020686100272021302209978DF829108DF82A2023461F4613F817
:40514000010B28B9B7EB040A16D04FF000090DE02528F3D1F6E7304614F809102A46FFF773FF013000F0AC8009F10109D145F2DB099901EB0A0209923B78002B00F0A080BF
:4051800000244FF0FF3004940794059006948DF853401A9407F101094F4F4C4638462178052201F0EBFB09F10109049B30B1C41B012707FA04F73B430493EDE7D90602D5C8
:4051C00020218DF853101A0702D52B228DF8532020782A2802D0079B27460EE0039A1768101D002F039001DB079704E0794243F002030791049301340AE03C462178013793
:405200003039092903D80A2404FB0313F5E7079322782E2A19D160782A2809D1039802340368021D002B0392B8BF4FF0FF330BE0671C00233C46217801373039092903D802
:405240000A2404FB0313F5E70593244F21783846032201F093FB38B1C71B402101FA07F1049B01340B43049314F8011B1C4806228DF8281001F082FB88B11A4A32B9039F68
:40528000FB1D23F007000830039014E003A90091304604A92A46144B00F0C0F807E003A8009004A930462A460F4B00F079FBB0F1FF3F804604D0099A02EB080109913CE7E4
:4052C000AB8903F0400002B20AB9099801E04FF0FF301CB0BDE8F087A6770000AC770000B07700001D540000495000002DE9D04F1E4688B012AB002E9246109F93E81808A9
:4053000003DA06F100462D2100E00021BBF1660F19700AD0BBF1460F07D0BBF1650F02D0BBF1450F03D1013701E0032300E002238DE8880007AA06AB0393049202945246E5
:40534000334600F0E1FCBBF1670F804602D0BBF1470F02D11198C30728D5BBF1660F08EB070902D0BBF1460F0FD198F80010302909D15046314600220023FFF7D7FD10B959
:40538000C7F101072760236899445046314600220023FFF7CBFD08B1CDF81C900798484504D2302200F8012B0790F7E7079A159BC8EB02011960404608B0BDE8D08F73B52D
:4053C0000346002903F8022B02DA49422D2200E02B22092942701A4619DD0DF106040A2691FBF6F506FB15113031092D234604F801192946F3DC303103F8011D0DF107014C
:405400008B4209D213F8011B02F8011BF6E7302289181A7059709A1C101A7CBD2DE9F04F91B00C4616461F46DDF86880054601F04FFAD0F800A0504601F0FCFD0B90D8F80D
:4054400000000023C11D0E9321F0070303F1080294F818B0C8F80020D3E90001C4E91201D4E9120101F0A4FD0128D4E9120117D100220023FFF764FD10B12D2284F84320F2
:405480009A489B49BBF1470F8CBF884680462068032320F00401236121604FF0000986E001F086FD10B993489349EBE761684A1C01D1062307E0BBF1670F02D0BBF1470F02
:4054C00002D109B9012363602268606842F480618DE80300D4E9122321600DF133000DA9029003910EA800210590CDF810B006912846FFF7FBFEBBF1670F804602D0BBF184
:40550000470F09D10D9BD81C02DB6268934231DDABF1020C5FFA8CFBBBF1650F0D9812D8411E5A4604F150000D91FFF748FF0E9A81468318012A236102DC2068C10730D5D1
:40554000591C21612DE0BBF1660F15D10028636808DD206113B92268D2071ED50133C01820611AE013B92168C80701D59A1C13E0012211E04FF0670B0D9B0E998B4205DBBA
:4055800020682361C10708D55A1C05E0002BD4BFC3F102030123CA1822610D994FF00009A1659DF8332012B12D2384F843300097284621460FAA334600F082F9013002D1F4
:4055C0004FF0FF3079E1236813F480620DD191462069814522DA284618F809103246B8470130EDD009F10109F2E7BBF1650F40F2F180D4E9120100220023FFF797FC00280D
:405600002DD0302128463246B8470130D8D00E9B0D9A9A4207DB2068C30704D421688A0700F1488140E10B990AEB010BDA4507D028461AF8011B3246B8470130F6D1BFE7E5
:405640004FF000080E9B5A1E9045E7DA2846A17E3246B8470130B3D008F10108F2E70D98002838DC302128463246B8470130A7D00D9A22B90E9810B92168C807CED50B9B48
:405680000AEB030BDA4507D028461AF8011B3246B8470130F6D193E74FF000090D9A5042814508DA2846A17E3246B847013087D009F10109F2E74FF000090E998945ADDA96
:4056C000284618F809103246B84701303FF478AF09F10109F1E7A16D0E9B8B42B4BF9C468C46BCF1000F09DC002329E0B7770000BB770000BF770000C3770000C1460CEBEF
:40570000080319F8011B28460993CDF828C03246B8470130099BDDF828C03FF451AF9945EFD1E1E7A17ECDF828C0284632460993B84701300999DDF828C03FF441AF4B1C71
:40574000D4F858902CEAEC72C2EB09008342E9DB0E990D9B8B420FDB2268D1070CD40E990D9BC844CA1AC9EB01099145A8BF9146B9F1000F0DDC18E00B980AEB000BDA450D
:40578000EDD028461AF8011B3246B8470130F6D116E708EB090A284618F8011B3246B84701303FF40DAFD045F5D14FF0000808E02846A17E3246B84701303FF401AF08F1D2
:4057C00001080D980E9929EAE9720B1A981A8045EEDB23E70E9898F8001001280ADCDA0708D428463246B84701303FF4E9AE4FF0000848E028463246B84701303FF4E0AE3F
:405800000B990AEB010BDA4507D028461AF8011B3246B8470130F6D1D2E6D4E9120100220023FFF783FB10B14FF000081AE04FF0000A0E98411E8A45D9DA08EB0A025178E7
:4058400028463246B84701303FF4BAAE0AF1010AEFE72846A17E3246B84701303FF4B0AE08F101080E9B5A1E9045F2DBBFE704EB0803284693F850103246B84701303FF43C
:405880009FAE08F10108C845F1DBC7E62846617E3246B84701303FF493AE08F10108E2680F9BD01A8045F1DBE0680F998842B8BF084602E04FF00008F1E711B0BDE8F08FD4
:4058C0002DE9F047154699468A680B6980469A42A8BF13462B6091F843000C46DDF820A008B1591C29602668B20602D52A68931C2B60206810F0060618D094F84370206838
:405900003E1C18BF012683061AD5A119302281F8432094F84530023681F8443010E04046617E4A46D047013006D00136E1682A688B1A9E42F3DBE0E74FF0FF30BDE8F087D0
:405940000027B74209DAE119404691F843104A46D0470130F0D00137F3E721682868E66801F00602042A08BFC0EB06052369A6680CBF25EAE57500259E42C4BFC3EB060306
:40598000ED180026AE4207DA4046A17E4A46D0470130D1D00136F5E70020BDE8F08700002DE9F0430C46257E85B06E2D9046074699460C9904F1430200F0AA8012D8632DFB
:4059C00024D009D8002D00F0BB80582D40F0CB8084F84550824D57E0642D20D0692D40F0C2801CE0732D00F0AF8009D86F2D2FD0702D40F0B880256845F0200626603FE011
:405A0000752D25D0782D40F0AE8039E0086804F14206021D0A60016884F84210A7E020680B6810F0800F02D01E1D0E6008E003F1040510F0400F0D6002D0B3F9001000E0AB
:405A4000196800293CDA2D20494284F8430037E025680E6815F0800F02D0331D0B6007E006F1040015F0400F086001D0318800E03168267E5A4D6F2E14BF0A2308231BE0E5
:405A80007820584D84F8450020680B6810F0800F03F104060E6003D1410601D5198800E01968C60744BF40F02000206019B9206820F0200323601023002084F8430001E05C
:405AC000474D0A236668002EA66003DB206820F00400206001B96EB104F14200B1FBF3FE03FB1E11695C064600F8011971460029F4D100E01646921B082B22613CD1236810
:405B0000D80739D56068904236DC511C616033E026680B6816F0800F05D01E1D0E601968606908600CE003F1040016F0400F086003D018686369038002E061691E683160BF
:405B400000232361164617E00E68321D0A603668304601F06FFA63682061984288BF23612069606005E004F1420684F8425001232361002184F84310CDF800903846214652
:405B800003AA4346FFF79CFE013002D14FF0FF3022E000252269954207DA3846715D4246C8470130F2D00135F4E72168890705D4E06803998842B8BF08460DE00025E0689D
:405BC000039BC21A9542F3DA3846617E4246C8470130DBD00135F2E705B0BDE8F08300BFC7770000D87700002DE9F74F0B69026905469A42C0F28280D81C86008A195068A4
:405C00005C1EAB1902F104095A68461CB2FBF6F601F1140805F11407002E3DD000203A46CDF804808646019B53F804CB1FFA8CFA06FB0A0A4FEA1C40019306FB00F303EBE5
:405C40001A4C13684FEA1C401FFA83FBDE441FFA8CFC1FFA8AFACAEB0E0ACCEB134303EB2A4C019B1FFA8AFA4FEA2C4E4B454AEA0C4C42F804CBD6D9221D05EB8203586845
:405C800050B9BB421A4601D82C6105E01068043B0028F9D1013CF4E7284601F091F800282ADB01363B46002058F804EB1A681FFA8EF11FFA82FAC1EB0A014FEA1E4C09181C
:405CC000CCEB124000EB214289B2101441EA0242C84543F8042BE7D9231D05EB8303586850B9BB42194601D82C6105E00A68043B002AF9D1013CF4E7304600E00020BDE84A
:405D0000FE8F0000000000002DE9F04F456A99B08346259CCDE9042345B9102000F0DCFDCBF82400456085600560C560DBF82430196861B15868012202FA00F648608E600B
:405D4000584600F05EFEDBF8241000270F60059B002B05DA012223F000462260059601E000202060059F9A49994B394099421CD12499049B42F20F720A603BB9954E9648FC
:405D8000C7F31307002F18BF304600E09148269E002E00F05285C27812B100F1080100E0C11C269E316000F048BDDDE904450022204629460023FFF7B9F858B1249E012364
:405DC0003360269E002E00F0358584483060013800F033BD17A816AA00900192584622462B4601F06CF8C7F30A56824666B1204625F07F4424F4700545F07F5141F4401142
:405E0000A6F2FF3600221CE0179C169D6FF482612E198E420ADB7249049D06F212448B1B25FA04F007FA03F7384304E06D4B049A981B02FA00F0FEF7ADFF013EA1F1F87142
:405E400001221592684B0022FEF766FE5AA3D3E9002301F00FF95AA3D3E90023FEF75EFE044630460D46FEF7A5FF57A3D3E9002301F000F902460B4620462946FEF74EFE0A
:405E800004460D4601F008FB29468146002220460023FFF755F858B14846FEF78BFF02460B4620462946FFF741F808B909F1FF39B9F1160F0ED84D4800EBC903D3E90001C9
:405EC000DDE90423FFF75AF828B1002209F1FF39149201E00120149016998E1B741E04D5654200200895099002E0002309940893B9F1000F08DB099D002305EB0900099000
:405F0000CDF844900C9308E0089AC9F10006C9EB0201002408910C961194229A092A27D8052A03DD111F2291002500E00125229EB41E032C21D8DFE804F0060F0204012365
:405F400002E0012009E00023239A0D93002A1EDD0B92079213461FE00020239C0D9004EB0900431C002B0B90079315DC012313E00125002222920D9501E001260D964FF03F
:405F8000FF3100260B9107911223239604E001210B9107910B462391DBF8244000206060042101F114029A4222D860684900421C6260F6E7AFF3008061436F63A787D23F2B
:405FC000B3C8608B288AC63FFB799F501344D33F0000F07FF2770000E9770000F77700000EFCFFFFEEFBFFFF0000F83F007800006168584600F0D0FC2060DBF824400799FA
:4060000023680E290A9300F25E81002D00F05B81B9F1000FDDE90401CDE9120133DD9D4B09F00F0703EBC706D6E900454FEA2916F2060CD5984A06F00F0602F12003D3E914
:40604000002301F041F90327CDE9040100E00227DFF8448276B1F30708D520462946D8E9002301F007F8013704460D46761008F10808EFE7DDE9040122462B4601F024F9B4
:40608000CDE9040120E0C9F10007E7B1814E07F00F0506EBC502DDE912010CCA00F0EAFF7D4D3C1102274CB1E60704D5D5E90023013700F0DFFF64100835F4E702460B46A3
:4060C000CDE9042300E002271498E0B1DDE90445002220462946714BFEF732FF98B1079989B10B9B002B40F3EA80204609F1FF36294600226A4B109600F0BCFF0137CDE9EA
:4061000004010B9C02E0079CCDF840903846FEF751FEDDE9042300F0ADFF0022614BFEF7FDFCA1F1507506462F46CCB9DDE9040100225D4BFEF7F0FC32462B46CDE90401DB
:40614000FEF71CFF002840F04782DDE90401324605F10043FEF7F4FE002840F03682AEE04C480D99621E00EBC20300294BD0D3E9002300204D4901F0A7F832462B46FEF73C
:40618000CBFCDDE90467CDE90E010A9D3946304601F082F98046FEF70DFE02460B4630463946FEF7B9FC08F1300305F8013BDDE90E2306460F46A846FEF7C2FE002840F024
:4061C000278332463B4600203449FEF7A5FCDDE90E23FEF7B5FE002840F0D3800A99681AA0426CDADDE90E0100222D4B00F042FF0022CDE90E012A4B3046394600F03AFF18
:4062000006460F46C2E7D3E9000132462B4600F031FFDDE904670A9DCDE90E012C19A8463946304601F038F90546FEF7C3FD02460B4630463946FEF76FFC303508F8015BB8
:40624000A04506460F4633D10022184BDDE90E01FEF764FC02460B4630463946FEF78EFE002840F08E80DDE90E2300200F49FEF753FC02460B4630463946FEF761FEF0B13A
:406280004046804618F8012C00F1FF30302AF8D0BEE200BF00780000D87800000000F03F0000244000001C40000014400000E03F00229A4B00F0DEFE06460F46B0E7DDE9B9
:4062C0001245CDE90445179D002D7CDBB9F10E0F79DC934C239904EBC9050029D5E9004514DA079A002A11DC40F06E812046294600228C4B00F0BEFEDDE90423FEF734FE1D
:40630000079C2546002840F0618168E10A9E07980A9F33180137089322462B46DDE9040100F0D2FF01F0B8F80790FEF743FD22462B4600F09FFE02460B46DDE90401FEF72D
:40634000EBFB079E0246303607F8016C089E0B46B742B84629D1FEF7E1FB22462B4606460F46FEF70BFE70B93046394622462B46FEF7DCFD002800F04D820799C90702D455
:4063800048E2DDF840904046804618F8012C0138392A06D10A9B8342F6D1302609F101091E7001784A1C027034E200225B4B00F061FE00220023CDE904010137FEF7B6FD9B
:4063C0000028A9D026E20D9F002F30D0229A012A0ADC159911B105F2334302E01698C0F136030C9C089E16E0079E0C9B711E8B4201DB5C1A06E00C98119F0D1A7C1911941C
:406400000C910024079A002A03DA089E0023B61A01E0089E079B089D099AEF185846D31801210897099300F08BFB054602E00C9C089E0D9D66B1099F002F09DD0899099A49
:40644000B742A8BF3746C81BD31B0890F61B09930C9F002F20DD0D99C1B1002C10DD29462246584600F006FC054652462946584600F06FFB51460746584600F0C2FABA4642
:406480000C98021B08D05846514602E00C9A5846514600F0EFFB82460121584600F050FB119A0446002A05DD21465846119A00F0E1FB0446229B012B10DC049971B90598B4
:4064C000C0F3130767B9184F074057B1089A0999531C481C08930990012702E0002700E0049F119A42B1216904EB8100006900F0DBFAC0F1200300E0012309995A1812F046
:406500001F0315D0C3F1200004280FDD0898C3F11C03C2180892F61810E000BF0000244000780000000014400000F07F08D0034608991C33CA1809990892F618CB18099369
:40654000089A002A04DD5146584600F0E5FB8246099A002A04DD2146584600F0DDFB04461499E1B15046214600F02AFC002816DA514658460A22002300F05AFA82460D983D
:4065800009F1FF3948B129460A225846002300F04FFA0B9A0546079201E00B9B07930798002825DC2299022922DD78B921460522079B584600F03CFA04462146504600F068
:4065C000FFFB00280BDC01E000242546239BDDF828806FEA030909E0DDF840902546DDF82880312008F8010B09F101090026FEE00D9B002B00F0B380002E05DD2946584694
:40660000324600F089FB05469FB16968584600F0C3F92B6907469A1C05F10C01920000F10C00FEF7DBFC58463946012200F074FB00E028460A9B07990A9E5A18771C099249
:406640002E46054621465046FFF7CEFA03463033079031465046029300F0B2FB214608902A46584600F0C9FB8446C06807F1FF38029B50B961465046CDF80CC000F0A0FB3D
:40668000029B0246DDF80CC000E00122584661460392029300F0B5F9039A029B6AB9229959B9049800F0010139B9392B2BD0089A002A2DDD079B31332AE00898002806DBAC
:4066C0001DD12299D9B9049800F00101B9B9002A1F461DDD514601225846029300F01CFB2146824600F06CFB0028029B02DC0FD1DA070DD5079B3133392F09D103E0002AC1
:4067000009DD392B03D1392308F8013B55E0013308F8013B6BE0099AB846974207F8013C3BD051460A220023584600F081F90A220023AE4282463146584604D100F078F9B2
:406740000646054609E000F073F9294606460A225846002300F06CF90546013772E70D9E50462146FFF740FA0A9A00F13003079893550136864207DA514658460A220023D9
:4067800000F056F98246EBE7DDF82880079900260129ACBF884408F10108514601225846029300F0B9FA2146824600F009FB0028029B02DC14D1DB0712D5414611F8010CB9
:4067C0008846392801F1FF3107D10A988842F5D1312309F10109037009E0421C0A7006E04046804618F8011C01383029F9D05846214600F006F96DB12EB1AE4203D05846A6
:40680000314600F0FEF85846294600F0FAF801E0DDF8409051460026584600F0F2F888F80060249A269E09F10101116026B1C6F8008001E0024800E00A9819B0BDE8F08FD3
:40684000F6770000AFF3008030B500293CD051F8042C0B1F1D49002AB8BF9B180A6812B95A600B6030BD93420ED219685818904203D15A5889184268196014485A60036088
:4068800030BD994203D80A4651680029F9D1146815199D420AD118682318D0188842136012D108681B1813604B680CE002D90C23036030BD18681C188C4203D10C68496888
:4068C000001918605960536030BD00BF1482FF1F00487047B081FF1F024B0146186800F003B800BFAC81FF1F70B5CD1C25F0030508350C2D38BF0C25002D06462DDB8D420B
:406900002BD31D4B1B681C469CB12268501B0DD40B2802D92060241817E0A34203D16068154A10601DE0616859601AE023466468EAE72946304600F06DFB431C01460CD09A
:40694000CC1C24F003048C4201D1256009E03046611A00F05FFB0130F7D10C203060002070BD04F10B01231D21F00700C31A02D05A42E25070BD70BD1482FF1F10B5C9B2A5
:40698000034682189342184604D0047801338C42F8D100E0002010BD70B5456A04460E463DB91020FFF798FF6062456085600560C560656AEB6843B1626AD36853F8260050
:4069C00078B1016843F8261017E004212046212200F038FBE860606AC1680029ECD1002070BD012101FA06F56A1D2046920000F029FB0028F3D04660856000230361C36073
:406A000070BD70B5446A06460D463CB91020FFF763FF7062446084600460C4603DB1736A6A68D86850F82210296040F8225070BD2DE9F0410C461E460D69074601F11401DA
:406A40000023086801331FFA80FC02FB0C6C060C564306EB1C401FFA8CFC060C0CEB0040AB4241F8040BECDBDEB1A268954213DB616838460131FFF78FFF8046206904F1C8
:406A80000C01831C9A0008F10C00FEF7A7FA21463846FFF7B6FF444604EB85020135566125612046BDE8F081020C0346100410B91B04102000E0002013F07F4F01D1083018
:406AC0001B0213F0704F01D104301B0113F0404F01D102309B00002B04DB5B0001D501307047202070470368024613F007000BD0D90721D4980703D55908116001207047BC
:406B0000980810600220704799B209B91B0C102013F0FF0F01D108301B0A190701D104301B09990701D102309B08D90702D45B0804D0013013607047002070472020704721
:406B400010B50C460121FFF727FF01224461026110BD2DE9F04F164633690A6985B09A420D4601DA35460E46D5F810803769AA68696808EB07049442C8BF0131FFF70CFF8C
:406B800000EB8401143100F114030191019A934203D2002243F8042BF8E706EB870705F1140305EB880C143702930CF1140E039700F1180306F11402039D1146AA424CD213
:406BC0000988043209B3029F1D1F002657F8049BD5F800801FFA89FB1FFA88FA01FB0BAC4FEA19490CEB060A4FEA184601FB09681FFA8AFC08EB1A484CEA084ABE454FEA8B
:406C0000184645F804ABE1D82E6032F8021C11B353F8046C029F1D464FF0000935F802ACB7F800B0B6B201FB0BACE14446EA094645F8046CA84657F8046BB8F800A0360CCC
:406C400001FB06A6043506EB194677454FEA1649E4D3C8F800600433AEE7019B002C03DC046105B0BDE8F08F53F8042D002AF7D1013CF3E712F003032DE9F04105460E4694
:406C8000174607D0234A5E1E52F826200023FFF7CFFE0646BF1039D06C6A3CB91020FFF71BFE6862446084600460C460D5F82480D8F808409CB9284640F27121FFF740FFF4
:406CC0000446C8F808000020206008E07F101DD0D4F800804046B8F1000F0ED00446F807F4D5314622462846FFF733FF314680462846FFF786FE4646E8E7284621462246D2
:406D0000FFF727FF2060C0F80080E7E73046BDE8F08100BFC87800002DE9F0470C4623694FEA621808EB030A4968A568814617460AF10106AE4202DD01316D00FAE7484687
:406D4000FFF72AFE0022054600F11400424504DA002140F822100132F8E728EAE870226905EB8003143304EB820017F01F0704F1140100F1140E14D01846C7F1200C0023CE
:406D80000A6802FA07F2134340F8043B51F8043B714523FA0CF3F3D3036043B10AF1020605E051F8042B8E4543F8042BF9D8013E48462E612146FFF724FE2846BDE8F08755
:406DC00003460A69006930B5801A15D1151DAA0003F1140489189B1804330A1D53F8045D52F8041D8D4203D005D24FF0FF3030BD9C42F3D330BD012030BD2DE9F04706464C
:406E00000C46084611461546FFF7DAFF071E08D139463046FFF7C0FD012101614761BDE8F08701DB002703E0234601272C461D4661683046FFF7B0FD2A69236905EB820183
:406E400004EB830CC7600CF1140C01F114081434143500F11407002254F8046B55F8041B1FFA86F94A441FFA81FA090CCAEB020EC1EB164606EB2E411FFA8EF90A1449EA6F
:406E8000014147F8041BA84526463946E4D866450DD256F8044BA5B2AD18220C02EB2544ADB2221445EA044441F8044BEFE751F8042D0AB9013BFAE70361BDE8F0872DE97D
:406EC000F74301211D46DDF82890DDF82C801446FFF762FDC5F30A5725F07F43064623F470000FB140F480100190DCB102AA684642F8084DFFF7F7FD009C50B1019AC0F1F5
:406F0000200302FA03F122FA00F20C437461019200E07461019A002A0CBF01240224B261346107E001A8FFF7DEFD019901247161346120303FB1A7F233473F18C9F80070DF
:406F4000C0F135010AE006EB8403A0F23240C9F800001869FFF7A8FD6401211AC8F800103046BDE8FE83F8B5064615460C4621B91146BDE8F840FFF7B7BC1AB9FFF764FC95
:406F80002C4612E000F06CF8A8420ED230462946FFF7AAFC074638B121462A46FEF71EF830462146FFF750FC3C462046F8BD00000B4611B1B1F1004F00D1E0B1124AA3F5A0
:406FC0008011914219D903F1FF4101F5E001914213D90E4A934212D903F1004191420ED90B4A934202D013F5801F0AD1D0F1010038BF002070470220704704207047032085
:4070000070470020704700BFFFFFDF7FFFFF0F000000F07F38B5064C002305460846236000F062FA431C02D1216801B1296038BDE882FF1F034613F8012B002AFBD1181A46
:407040000138704738B501FB02F42146FFF74CFC054618B100212246FDF7C9FF284638BD51F8040C002802DA04390B58C01804387047000070B54FF0FF0C4CF4E06C1CEA17
:4070800011541DBF1CEA135594EA0C0F95EA0C0F00F0DEF82C4481EA030621EA4C5123EA4C5350EA013518BF52EA033541F4801143F4801338D0A0FB02CE4FF00005E1FB12
:4070C00002E506F00042E0FB03E54FF00006E1FB03569CF0000F18BF4EF0010EA4F1FF04B6F5007F64F5407404D25FEA4E0E6D4146EB060642EAC62141EA55514FEAC5203E
:4071000040EA5E504FEACE2EB4F1FD0C88BFBCF5E06F1ED8BEF1004F08BF5FEA500E50F1000041EB045170BD06F0004646EA010140EA020081EA0301B4EB5C04C2BFD4EBB4
:407140000C0541EA045170BD41F480114FF0000E013C00F3AB8014F1360FDEBF002001F0004170BDC4F10004203C35DA0C341BDC04F11404C4F1200500FA05F320FA04F03B
:4071800001FA05F240EA020001F0004221F0004110EBD37021FA04F642EB06015EEA430E08BF20EAD37070BDC4F10C04C4F1200500FA04F320FA05F001FA04F240EA02000F
:4071C00001F0004110EBD37041F100015EEA430E08BF20EAD37070BDC4F1200500FA05F24EEA020E20FA04F301FA05F243EA020321FA04F001F0004121FA04F220EA02006C
:4072000000EBD3705EEA430E08BF20EAD37070BD94F0000F0FD101F00046400041EB010111F4801F08BF013CF7D041EA060195F0000F18BF704703F00046520043EB0303AC
